{
  "contracts/ProjectIdeal.sol": {
    "ProjectIdeal": {
      "abi": [
        {
          "anonymous": false,
          "inputs": [
            {
              "indexed": false,
              "internalType": "uint256",
              "name": "projectId",
              "type": "uint256"
            },
            {
              "indexed": true,
              "internalType": "address",
              "name": "contributor",
              "type": "address"
            },
            {
              "indexed": false,
              "internalType": "uint256",
              "name": "amount",
              "type": "uint256"
            }
          ],
          "name": "ContributionMade",
          "type": "event"
        },
        {
          "anonymous": false,
          "inputs": [
            {
              "indexed": false,
              "internalType": "uint256",
              "name": "projectId",
              "type": "uint256"
            },
            {
              "indexed": true,
              "internalType": "address",
              "name": "creator",
              "type": "address"
            },
            {
              "indexed": false,
              "internalType": "uint256",
              "name": "amount",
              "type": "uint256"
            }
          ],
          "name": "FundsWithdrawn",
          "type": "event"
        },
        {
          "anonymous": false,
          "inputs": [
            {
              "indexed": false,
              "internalType": "uint256",
              "name": "projectId",
              "type": "uint256"
            },
            {
              "indexed": true,
              "internalType": "address",
              "name": "creator",
              "type": "address"
            },
            {
              "indexed": false,
              "internalType": "string",
              "name": "title",
              "type": "string"
            },
            {
              "indexed": false,
              "internalType": "uint256",
              "name": "fundingGoal",
              "type": "uint256"
            },
            {
              "indexed": false,
              "internalType": "uint256",
              "name": "deadline",
              "type": "uint256"
            }
          ],
          "name": "ProjectCreated",
          "type": "event"
        },
        {
          "inputs": [
            {
              "internalType": "uint256",
              "name": "",
              "type": "uint256"
            },
            {
              "internalType": "address",
              "name": "",
              "type": "address"
            }
          ],
          "name": "contributions",
          "outputs": [
            {
              "internalType": "uint256",
              "name": "",
              "type": "uint256"
            }
          ],
          "stateMutability": "view",
          "type": "function"
        },
        {
          "inputs": [
            {
              "internalType": "uint256",
              "name": "_projectId",
              "type": "uint256"
            }
          ],
          "name": "fundProject",
          "outputs": [],
          "stateMutability": "payable",
          "type": "function"
        },
        {
          "inputs": [
            {
              "internalType": "uint256",
              "name": "_projectId",
              "type": "uint256"
            }
          ],
          "name": "getProject",
          "outputs": [
            {
              "internalType": "address",
              "name": "creator",
              "type": "address"
            },
            {
              "internalType": "string",
              "name": "title",
              "type": "string"
            },
            {
              "internalType": "string",
              "name": "description",
              "type": "string"
            },
            {
              "internalType": "uint256",
              "name": "fundingGoal",
              "type": "uint256"
            },
            {
              "internalType": "uint256",
              "name": "deadline",
              "type": "uint256"
            },
            {
              "internalType": "uint256",
              "name": "fundsRaised",
              "type": "uint256"
            },
            {
              "internalType": "bool",
              "name": "withdrawn",
              "type": "bool"
            }
          ],
          "stateMutability": "view",
          "type": "function"
        },
        {
          "inputs": [],
          "name": "getProjectCount",
          "outputs": [
            {
              "internalType": "uint256",
              "name": "",
              "type": "uint256"
            }
          ],
          "stateMutability": "view",
          "type": "function"
        },
        {
          "inputs": [
            {
              "internalType": "uint256",
              "name": "",
              "type": "uint256"
            }
          ],
          "name": "projects",
          "outputs": [
            {
              "internalType": "address payable",
              "name": "creator",
              "type": "address"
            },
            {
              "internalType": "string",
              "name": "title",
              "type": "string"
            },
            {
              "internalType": "string",
              "name": "description",
              "type": "string"
            },
            {
              "internalType": "uint256",
              "name": "fundingGoal",
              "type": "uint256"
            },
            {
              "internalType": "uint256",
              "name": "deadline",
              "type": "uint256"
            },
            {
              "internalType": "uint256",
              "name": "fundsRaised",
              "type": "uint256"
            },
            {
              "internalType": "bool",
              "name": "withdrawn",
              "type": "bool"
            }
          ],
          "stateMutability": "view",
          "type": "function"
        },
        {
          "inputs": [
            {
              "internalType": "string",
              "name": "_title",
              "type": "string"
            },
            {
              "internalType": "string",
              "name": "_description",
              "type": "string"
            },
            {
              "internalType": "uint256",
              "name": "_fundingGoal",
              "type": "uint256"
            },
            {
              "internalType": "uint256",
              "name": "_deadline",
              "type": "uint256"
            }
          ],
          "name": "submitProject",
          "outputs": [],
          "stateMutability": "nonpayable",
          "type": "function"
        },
        {
          "inputs": [
            {
              "internalType": "uint256",
              "name": "_projectId",
              "type": "uint256"
            }
          ],
          "name": "withdrawFunds",
          "outputs": [],
          "stateMutability": "nonpayable",
          "type": "function"
        }
      ],
      "evm": {
        "bytecode": {
          "linkReferences": {},
          "object": "6080604052348015600f57600080fd5b506118d18061001f6000396000f3fe6080604052600436106100705760003560e01c80633d891f591161004e5780633d891f591461010c57806357cbf1a2146101495780636c563abe14610172578063f0f3f2c81461018e57610070565b8063107046bd14610075578063155dd5ee146100b85780633bcff3b0146100e1575b600080fd5b34801561008157600080fd5b5061009c60048036038101906100979190610c5e565b6101d1565b6040516100af9796959493929190610d86565b60405180910390f35b3480156100c457600080fd5b506100df60048036038101906100da9190610c5e565b610360565b005b3480156100ed57600080fd5b506100f6610649565b6040516101039190610e03565b60405180910390f35b34801561011857600080fd5b50610133600480360381019061012e9190610e5c565b610655565b6040516101409190610e03565b60405180910390f35b34801561015557600080fd5b50610170600480360381019061016b9190610fd1565b61067a565b005b61018c60048036038101906101879190610c5e565b610852565b005b34801561019a57600080fd5b506101b560048036038101906101b09190610c5e565b610a1d565b6040516101c8979695949392919061107f565b60405180910390f35b600081815481106101e157600080fd5b90600052602060002090600702016000915090508060000160009054906101000a900473ffffffffffffffffffffffffffffffffffffffff169080600101805461022a9061112b565b80601f01602080910402602001604051908101604052809291908181526020018280546102569061112b565b80156102a35780601f10610278576101008083540402835291602001916102a3565b820191906000526020600020905b81548152906001019060200180831161028657829003601f168201915b5050505050908060020180546102b89061112b565b80601f01602080910402602001604051908101604052809291908181526020018280546102e49061112b565b80156103315780601f1061030657610100808354040283529160200191610331565b820191906000526020600020905b81548152906001019060200180831161031457829003601f168201915b5050505050908060030154908060040154908060050154908060060160009054906101000a900460ff16905087565b60008054905081106103a7576040517f08c379a000000000000000000000000000000000000000000000000000000000815260040161039e906111a8565b60405180910390fd5b60008082815481106103bc576103bb6111c8565b5b906000526020600020906007020190508060000160009054906101000a900473ffffffffffffffffffffffffffffffffffffffff1673ffffffffffffffffffffffffffffffffffffffff163373ffffffffffffffffffffffffffffffffffffffff161461045e576040517f08c379a000000000000000000000000000000000000000000000000000000000815260040161045590611243565b60405180910390fd5b806004015442116104a4576040517f08c379a000000000000000000000000000000000000000000000000000000000815260040161049b906112af565b60405180910390fd5b8060030154816005015410156104ef576040517f08c379a00000000000000000000000000000000000000000000000000000000081526004016104e69061131b565b60405180910390fd5b8060060160009054906101000a900460ff1615610541576040517f08c379a000000000000000000000000000000000000000000000000000000000815260040161053890611387565b60405180910390fd5b60018160060160006101000a81548160ff0219169083151502179055508060000160009054906101000a900473ffffffffffffffffffffffffffffffffffffffff1673ffffffffffffffffffffffffffffffffffffffff166108fc82600501549081150290604051600060405180830381858888f193505050501580156105cc573d6000803e3d6000fd5b508060000160009054906101000a900473ffffffffffffffffffffffffffffffffffffffff1673ffffffffffffffffffffffffffffffffffffffff167ff440aec6b52895984d061d622e6edeba6210f7c3e059be920663140c084560d783836005015460405161063d9291906113a7565b60405180910390a25050565b60008080549050905090565b6001602052816000526040600020602052806000526040600020600091509150505481565b4281116106bc576040517f08c379a00000000000000000000000000000000000000000000000000000000081526004016106b39061141c565b60405180910390fd5b60006040518060e001604052803373ffffffffffffffffffffffffffffffffffffffff1681526020018681526020018581526020018481526020018381526020016000815260200160001515815250908060018154018082558091505060019003906000526020600020906007020160009091909190915060008201518160000160006101000a81548173ffffffffffffffffffffffffffffffffffffffff021916908373ffffffffffffffffffffffffffffffffffffffff160217905550602082015181600101908161079091906115e8565b5060408201518160020190816107a691906115e8565b50606082015181600301556080820151816004015560a0820151816005015560c08201518160060160006101000a81548160ff02191690831515021790555050503373ffffffffffffffffffffffffffffffffffffffff167f483013d4a1d5e8ba43089bda8f1a92b959e32d6fc582556f800267dd809e5893600160008054905061083191906116e9565b868585604051610844949392919061171d565b60405180910390a250505050565b6000805490508110610899576040517f08c379a0000000000000000000000000000000000000000000000000000000008152600401610890906111a8565b60405180910390fd5b60008082815481106108ae576108ad6111c8565b5b9060005260206000209060070201905080600401544210610904576040517f08c379a00000000000000000000000000000000000000000000000000000000081526004016108fb906117b5565b60405180910390fd5b60003411610947576040517f08c379a000000000000000000000000000000000000000000000000000000000815260040161093e90611847565b60405180910390fd5b3481600501600082825461095b9190611867565b92505081905550346001600084815260200190815260200160002060003373ffffffffffffffffffffffffffffffffffffffff1673ffffffffffffffffffffffffffffffffffffffff16815260200190815260200160002060008282546109c29190611867565b925050819055503373ffffffffffffffffffffffffffffffffffffffff167f0a4a91237423e0a1766a761c7cb029311d8b95d6b1b81db1b949a70c98b4e08e8334604051610a119291906113a7565b60405180910390a25050565b60006060806000806000806000805490508810610a6f576040517f08c379a0000000000000000000000000000000000000000000000000000000008152600401610a66906111a8565b60405180910390fd5b6000808981548110610a8457610a836111c8565b5b906000526020600020906007020190508060000160009054906101000a900473ffffffffffffffffffffffffffffffffffffffff1681600101826002018360030154846004015485600501548660060160009054906101000a900460ff16858054610aee9061112b565b80601f0160208091040260200160405190810160405280929190818152602001828054610b1a9061112b565b8015610b675780601f10610b3c57610100808354040283529160200191610b67565b820191906000526020600020905b815481529060010190602001808311610b4a57829003601f168201915b50505050509550848054610b7a9061112b565b80601f0160208091040260200160405190810160405280929190818152602001828054610ba69061112b565b8015610bf35780601f10610bc857610100808354040283529160200191610bf3565b820191906000526020600020905b815481529060010190602001808311610bd657829003601f168201915b50505050509450975097509750975097509750975050919395979092949650565b6000604051905090565b600080fd5b600080fd5b6000819050919050565b610c3b81610c28565b8114610c4657600080fd5b50565b600081359050610c5881610c32565b92915050565b600060208284031215610c7457610c73610c1e565b5b6000610c8284828501610c49565b91505092915050565b600073ffffffffffffffffffffffffffffffffffffffff82169050919050565b6000610cb682610c8b565b9050919050565b610cc681610cab565b82525050565b600081519050919050565b600082825260208201905092915050565b60005b83811015610d06578082015181840152602081019050610ceb565b60008484015250505050565b6000601f19601f8301169050919050565b6000610d2e82610ccc565b610d388185610cd7565b9350610d48818560208601610ce8565b610d5181610d12565b840191505092915050565b610d6581610c28565b82525050565b60008115159050919050565b610d8081610d6b565b82525050565b600060e082019050610d9b600083018a610cbd565b8181036020830152610dad8189610d23565b90508181036040830152610dc18188610d23565b9050610dd06060830187610d5c565b610ddd6080830186610d5c565b610dea60a0830185610d5c565b610df760c0830184610d77565b98975050505050505050565b6000602082019050610e186000830184610d5c565b92915050565b6000610e2982610c8b565b9050919050565b610e3981610e1e565b8114610e4457600080fd5b50565b600081359050610e5681610e30565b92915050565b60008060408385031215610e7357610e72610c1e565b5b6000610e8185828601610c49565b9250506020610e9285828601610e47565b9150509250929050565b600080fd5b600080fd5b7f4e487b7100000000000000000000000000000000000000000000000000000000600052604160045260246000fd5b610ede82610d12565b810181811067ffffffffffffffff82111715610efd57610efc610ea6565b5b80604052505050565b6000610f10610c14565b9050610f1c8282610ed5565b919050565b600067ffffffffffffffff821115610f3c57610f3b610ea6565b5b610f4582610d12565b9050602081019050919050565b82818337600083830152505050565b6000610f74610f6f84610f21565b610f06565b905082815260208101848484011115610f9057610f8f610ea1565b5b610f9b848285610f52565b509392505050565b600082601f830112610fb857610fb7610e9c565b5b8135610fc8848260208601610f61565b91505092915050565b60008060008060808587031215610feb57610fea610c1e565b5b600085013567ffffffffffffffff81111561100957611008610c23565b5b61101587828801610fa3565b945050602085013567ffffffffffffffff81111561103657611035610c23565b5b61104287828801610fa3565b935050604061105387828801610c49565b925050606061106487828801610c49565b91505092959194509250565b61107981610e1e565b82525050565b600060e082019050611094600083018a611070565b81810360208301526110a68189610d23565b905081810360408301526110ba8188610d23565b90506110c96060830187610d5c565b6110d66080830186610d5c565b6110e360a0830185610d5c565b6110f060c0830184610d77565b98975050505050505050565b7f4e487b7100000000000000000000000000000000000000000000000000000000600052602260045260246000fd5b6000600282049050600182168061114357607f821691505b602082108103611156576111556110fc565b5b50919050565b7f50726f6a65637420646f6573206e6f7420657869737400000000000000000000600082015250565b6000611192601683610cd7565b915061119d8261115c565b602082019050919050565b600060208201905081810360008301526111c181611185565b9050919050565b7f4e487b7100000000000000000000000000000000000000000000000000000000600052603260045260246000fd5b7f4f6e6c792063726561746f722063616e2077697468647261772066756e647300600082015250565b600061122d601f83610cd7565b9150611238826111f7565b602082019050919050565b6000602082019050818103600083015261125c81611220565b9050919050565b7f43616e6e6f74207769746864726177206265666f726520646561646c696e6500600082015250565b6000611299601f83610cd7565b91506112a482611263565b602082019050919050565b600060208201905081810360008301526112c88161128c565b9050919050565b7f46756e64696e6720676f616c206e6f7420726561636865640000000000000000600082015250565b6000611305601883610cd7565b9150611310826112cf565b602082019050919050565b60006020820190508181036000830152611334816112f8565b9050919050565b7f46756e647320616c72656164792077697468647261776e000000000000000000600082015250565b6000611371601783610cd7565b915061137c8261133b565b602082019050919050565b600060208201905081810360008301526113a081611364565b9050919050565b60006040820190506113bc6000830185610d5c565b6113c96020830184610d5c565b9392505050565b7f446561646c696e652073686f756c6420626520696e2074686520667574757265600082015250565b6000611406602083610cd7565b9150611411826113d0565b602082019050919050565b60006020820190508181036000830152611435816113f9565b9050919050565b60008190508160005260206000209050919050565b60006020601f8301049050919050565b600082821b905092915050565b60006008830261149e7fffffffffffffffffffffffffffffffffffffffffffffffffffffffffffffffff82611461565b6114a88683611461565b95508019841693508086168417925050509392505050565b6000819050919050565b60006114e56114e06114db84610c28565b6114c0565b610c28565b9050919050565b6000819050919050565b6114ff836114ca565b61151361150b826114ec565b84845461146e565b825550505050565b600090565b61152861151b565b6115338184846114f6565b505050565b5b818110156115575761154c600082611520565b600181019050611539565b5050565b601f82111561159c5761156d8161143c565b61157684611451565b81016020851015611585578190505b61159961159185611451565b830182611538565b50505b505050565b600082821c905092915050565b60006115bf600019846008026115a1565b1980831691505092915050565b60006115d883836115ae565b9150826002028217905092915050565b6115f182610ccc565b67ffffffffffffffff81111561160a57611609610ea6565b5b611614825461112b565b61161f82828561155b565b600060209050601f8311600181146116525760008415611640578287015190505b61164a85826115cc565b8655506116b2565b601f1984166116608661143c565b60005b8281101561168857848901518255600182019150602085019450602081019050611663565b868310156116a557848901516116a1601f8916826115ae565b8355505b6001600288020188555050505b505050505050565b7f4e487b7100000000000000000000000000000000000000000000000000000000600052601160045260246000fd5b60006116f482610c28565b91506116ff83610c28565b9250828203905081811115611717576117166116ba565b5b92915050565b60006080820190506117326000830187610d5c565b81810360208301526117448186610d23565b90506117536040830185610d5c565b6117606060830184610d5c565b95945050505050565b7f46756e64696e6720706572696f642068617320656e6465640000000000000000600082015250565b600061179f601883610cd7565b91506117aa82611769565b602082019050919050565b600060208201905081810360008301526117ce81611792565b9050919050565b7f436f6e747269627574696f6e206d75737420626520677265617465722074686160008201527f6e207a65726f0000000000000000000000000000000000000000000000000000602082015250565b6000611831602683610cd7565b915061183c826117d5565b604082019050919050565b6000602082019050818103600083015261186081611824565b9050919050565b600061187282610c28565b915061187d83610c28565b9250828201905080821115611895576118946116ba565b5b9291505056fea2646970667358221220f4cc000fd0aa07f134bf0422e7d81d2e37d3daaa59d3e03d6cfb4257224780a164736f6c634300081b0033",
          "opcodes": "PUSH1 0x80 PUSH1 0x40 MSTORE CALLVALUE DUP1 ISZERO PUSH1 0xF JUMPI PUSH1 0x0 DUP1 REVERT JUMPDEST POP PUSH2 0x18D1 DUP1 PUSH2 0x1F PUSH1 0x0 CODECOPY PUSH1 0x0 RETURN INVALID PUSH1 0x80 PUSH1 0x40 MSTORE PUSH1 0x4 CALLDATASIZE LT PUSH2 0x70 JUMPI PUSH1 0x0 CALLDATALOAD PUSH1 0xE0 SHR DUP1 PUSH4 0x3D891F59 GT PUSH2 0x4E JUMPI DUP1 PUSH4 0x3D891F59 EQ PUSH2 0x10C JUMPI DUP1 PUSH4 0x57CBF1A2 EQ PUSH2 0x149 JUMPI DUP1 PUSH4 0x6C563ABE EQ PUSH2 0x172 JUMPI DUP1 PUSH4 0xF0F3F2C8 EQ PUSH2 0x18E JUMPI PUSH2 0x70 JUMP JUMPDEST DUP1 PUSH4 0x107046BD EQ PUSH2 0x75 JUMPI DUP1 PUSH4 0x155DD5EE EQ PUSH2 0xB8 JUMPI DUP1 PUSH4 0x3BCFF3B0 EQ PUSH2 0xE1 JUMPI JUMPDEST PUSH1 0x0 DUP1 REVERT JUMPDEST CALLVALUE DUP1 ISZERO PUSH2 0x81 JUMPI PUSH1 0x0 DUP1 REVERT JUMPDEST POP PUSH2 0x9C PUSH1 0x4 DUP1 CALLDATASIZE SUB DUP2 ADD SWAP1 PUSH2 0x97 SWAP2 SWAP1 PUSH2 0xC5E JUMP JUMPDEST PUSH2 0x1D1 JUMP JUMPDEST PUSH1 0x40 MLOAD PUSH2 0xAF SWAP8 SWAP7 SWAP6 SWAP5 SWAP4 SWAP3 SWAP2 SWAP1 PUSH2 0xD86 JUMP JUMPDEST PUSH1 0x40 MLOAD DUP1 SWAP2 SUB SWAP1 RETURN JUMPDEST CALLVALUE DUP1 ISZERO PUSH2 0xC4 JUMPI PUSH1 0x0 DUP1 REVERT JUMPDEST POP PUSH2 0xDF PUSH1 0x4 DUP1 CALLDATASIZE SUB DUP2 ADD SWAP1 PUSH2 0xDA SWAP2 SWAP1 PUSH2 0xC5E JUMP JUMPDEST PUSH2 0x360 JUMP JUMPDEST STOP JUMPDEST CALLVALUE DUP1 ISZERO PUSH2 0xED JUMPI PUSH1 0x0 DUP1 REVERT JUMPDEST POP PUSH2 0xF6 PUSH2 0x649 JUMP JUMPDEST PUSH1 0x40 MLOAD PUSH2 0x103 SWAP2 SWAP1 PUSH2 0xE03 JUMP JUMPDEST PUSH1 0x40 MLOAD DUP1 SWAP2 SUB SWAP1 RETURN JUMPDEST CALLVALUE DUP1 ISZERO PUSH2 0x118 JUMPI PUSH1 0x0 DUP1 REVERT JUMPDEST POP PUSH2 0x133 PUSH1 0x4 DUP1 CALLDATASIZE SUB DUP2 ADD SWAP1 PUSH2 0x12E SWAP2 SWAP1 PUSH2 0xE5C JUMP JUMPDEST PUSH2 0x655 JUMP JUMPDEST PUSH1 0x40 MLOAD PUSH2 0x140 SWAP2 SWAP1 PUSH2 0xE03 JUMP JUMPDEST PUSH1 0x40 MLOAD DUP1 SWAP2 SUB SWAP1 RETURN JUMPDEST CALLVALUE DUP1 ISZERO PUSH2 0x155 JUMPI PUSH1 0x0 DUP1 REVERT JUMPDEST POP PUSH2 0x170 PUSH1 0x4 DUP1 CALLDATASIZE SUB DUP2 ADD SWAP1 PUSH2 0x16B SWAP2 SWAP1 PUSH2 0xFD1 JUMP JUMPDEST PUSH2 0x67A JUMP JUMPDEST STOP JUMPDEST PUSH2 0x18C PUSH1 0x4 DUP1 CALLDATASIZE SUB DUP2 ADD SWAP1 PUSH2 0x187 SWAP2 SWAP1 PUSH2 0xC5E JUMP JUMPDEST PUSH2 0x852 JUMP JUMPDEST STOP JUMPDEST CALLVALUE DUP1 ISZERO PUSH2 0x19A JUMPI PUSH1 0x0 DUP1 REVERT JUMPDEST POP PUSH2 0x1B5 PUSH1 0x4 DUP1 CALLDATASIZE SUB DUP2 ADD SWAP1 PUSH2 0x1B0 SWAP2 SWAP1 PUSH2 0xC5E JUMP JUMPDEST PUSH2 0xA1D JUMP JUMPDEST PUSH1 0x40 MLOAD PUSH2 0x1C8 SWAP8 SWAP7 SWAP6 SWAP5 SWAP4 SWAP3 SWAP2 SWAP1 PUSH2 0x107F JUMP JUMPDEST PUSH1 0x40 MLOAD DUP1 SWAP2 SUB SWAP1 RETURN JUMPDEST PUSH1 0x0 DUP2 DUP2 SLOAD DUP2 LT PUSH2 0x1E1 JUMPI PUSH1 0x0 DUP1 REVERT JUMPDEST SWAP1 PUSH1 0x0 MSTORE PUSH1 0x20 PUSH1 0x0 KECCAK256 SWAP1 PUSH1 0x7 MUL ADD PUSH1 0x0 SWAP2 POP SWAP1 POP DUP1 PUSH1 0x0 ADD PUSH1 0x0 SWAP1 SLOAD SWAP1 PUSH2 0x100 EXP SWAP1 DIV PUSH20 0xFFFFFFFFFFFFFFFFFFFFFFFFFFFFFFFFFFFFFFFF AND SWAP1 DUP1 PUSH1 0x1 ADD DUP1 SLOAD PUSH2 0x22A SWAP1 PUSH2 0x112B JUMP JUMPDEST DUP1 PUSH1 0x1F ADD PUSH1 0x20 DUP1 SWAP2 DIV MUL PUSH1 0x20 ADD PUSH1 0x40 MLOAD SWAP1 DUP2 ADD PUSH1 0x40 MSTORE DUP1 SWAP3 SWAP2 SWAP1 DUP2 DUP2 MSTORE PUSH1 0x20 ADD DUP3 DUP1 SLOAD PUSH2 0x256 SWAP1 PUSH2 0x112B JUMP JUMPDEST DUP1 ISZERO PUSH2 0x2A3 JUMPI DUP1 PUSH1 0x1F LT PUSH2 0x278 JUMPI PUSH2 0x100 DUP1 DUP4 SLOAD DIV MUL DUP4 MSTORE SWAP2 PUSH1 0x20 ADD SWAP2 PUSH2 0x2A3 JUMP JUMPDEST DUP3 ADD SWAP2 SWAP1 PUSH1 0x0 MSTORE PUSH1 0x20 PUSH1 0x0 KECCAK256 SWAP1 JUMPDEST DUP2 SLOAD DUP2 MSTORE SWAP1 PUSH1 0x1 ADD SWAP1 PUSH1 0x20 ADD DUP1 DUP4 GT PUSH2 0x286 JUMPI DUP3 SWAP1 SUB PUSH1 0x1F AND DUP3 ADD SWAP2 JUMPDEST POP POP POP POP POP SWAP1 DUP1 PUSH1 0x2 ADD DUP1 SLOAD PUSH2 0x2B8 SWAP1 PUSH2 0x112B JUMP JUMPDEST DUP1 PUSH1 0x1F ADD PUSH1 0x20 DUP1 SWAP2 DIV MUL PUSH1 0x20 ADD PUSH1 0x40 MLOAD SWAP1 DUP2 ADD PUSH1 0x40 MSTORE DUP1 SWAP3 SWAP2 SWAP1 DUP2 DUP2 MSTORE PUSH1 0x20 ADD DUP3 DUP1 SLOAD PUSH2 0x2E4 SWAP1 PUSH2 0x112B JUMP JUMPDEST DUP1 ISZERO PUSH2 0x331 JUMPI DUP1 PUSH1 0x1F LT PUSH2 0x306 JUMPI PUSH2 0x100 DUP1 DUP4 SLOAD DIV MUL DUP4 MSTORE SWAP2 PUSH1 0x20 ADD SWAP2 PUSH2 0x331 JUMP JUMPDEST DUP3 ADD SWAP2 SWAP1 PUSH1 0x0 MSTORE PUSH1 0x20 PUSH1 0x0 KECCAK256 SWAP1 JUMPDEST DUP2 SLOAD DUP2 MSTORE SWAP1 PUSH1 0x1 ADD SWAP1 PUSH1 0x20 ADD DUP1 DUP4 GT PUSH2 0x314 JUMPI DUP3 SWAP1 SUB PUSH1 0x1F AND DUP3 ADD SWAP2 JUMPDEST POP POP POP POP POP SWAP1 DUP1 PUSH1 0x3 ADD SLOAD SWAP1 DUP1 PUSH1 0x4 ADD SLOAD SWAP1 DUP1 PUSH1 0x5 ADD SLOAD SWAP1 DUP1 PUSH1 0x6 ADD PUSH1 0x0 SWAP1 SLOAD SWAP1 PUSH2 0x100 EXP SWAP1 DIV PUSH1 0xFF AND SWAP1 POP DUP8 JUMP JUMPDEST PUSH1 0x0 DUP1 SLOAD SWAP1 POP DUP2 LT PUSH2 0x3A7 JUMPI PUSH1 0x40 MLOAD PUSH32 0x8C379A000000000000000000000000000000000000000000000000000000000 DUP2 MSTORE PUSH1 0x4 ADD PUSH2 0x39E SWAP1 PUSH2 0x11A8 JUMP JUMPDEST PUSH1 0x40 MLOAD DUP1 SWAP2 SUB SWAP1 REVERT JUMPDEST PUSH1 0x0 DUP1 DUP3 DUP2 SLOAD DUP2 LT PUSH2 0x3BC JUMPI PUSH2 0x3BB PUSH2 0x11C8 JUMP JUMPDEST JUMPDEST SWAP1 PUSH1 0x0 MSTORE PUSH1 0x20 PUSH1 0x0 KECCAK256 SWAP1 PUSH1 0x7 MUL ADD SWAP1 POP DUP1 PUSH1 0x0 ADD PUSH1 0x0 SWAP1 SLOAD SWAP1 PUSH2 0x100 EXP SWAP1 DIV PUSH20 0xFFFFFFFFFFFFFFFFFFFFFFFFFFFFFFFFFFFFFFFF AND PUSH20 0xFFFFFFFFFFFFFFFFFFFFFFFFFFFFFFFFFFFFFFFF AND CALLER PUSH20 0xFFFFFFFFFFFFFFFFFFFFFFFFFFFFFFFFFFFFFFFF AND EQ PUSH2 0x45E JUMPI PUSH1 0x40 MLOAD PUSH32 0x8C379A000000000000000000000000000000000000000000000000000000000 DUP2 MSTORE PUSH1 0x4 ADD PUSH2 0x455 SWAP1 PUSH2 0x1243 JUMP JUMPDEST PUSH1 0x40 MLOAD DUP1 SWAP2 SUB SWAP1 REVERT JUMPDEST DUP1 PUSH1 0x4 ADD SLOAD TIMESTAMP GT PUSH2 0x4A4 JUMPI PUSH1 0x40 MLOAD PUSH32 0x8C379A000000000000000000000000000000000000000000000000000000000 DUP2 MSTORE PUSH1 0x4 ADD PUSH2 0x49B SWAP1 PUSH2 0x12AF JUMP JUMPDEST PUSH1 0x40 MLOAD DUP1 SWAP2 SUB SWAP1 REVERT JUMPDEST DUP1 PUSH1 0x3 ADD SLOAD DUP2 PUSH1 0x5 ADD SLOAD LT ISZERO PUSH2 0x4EF JUMPI PUSH1 0x40 MLOAD PUSH32 0x8C379A000000000000000000000000000000000000000000000000000000000 DUP2 MSTORE PUSH1 0x4 ADD PUSH2 0x4E6 SWAP1 PUSH2 0x131B JUMP JUMPDEST PUSH1 0x40 MLOAD DUP1 SWAP2 SUB SWAP1 REVERT JUMPDEST DUP1 PUSH1 0x6 ADD PUSH1 0x0 SWAP1 SLOAD SWAP1 PUSH2 0x100 EXP SWAP1 DIV PUSH1 0xFF AND ISZERO PUSH2 0x541 JUMPI PUSH1 0x40 MLOAD PUSH32 0x8C379A000000000000000000000000000000000000000000000000000000000 DUP2 MSTORE PUSH1 0x4 ADD PUSH2 0x538 SWAP1 PUSH2 0x1387 JUMP JUMPDEST PUSH1 0x40 MLOAD DUP1 SWAP2 SUB SWAP1 REVERT JUMPDEST PUSH1 0x1 DUP2 PUSH1 0x6 ADD PUSH1 0x0 PUSH2 0x100 EXP DUP2 SLOAD DUP2 PUSH1 0xFF MUL NOT AND SWAP1 DUP4 ISZERO ISZERO MUL OR SWAP1 SSTORE POP DUP1 PUSH1 0x0 ADD PUSH1 0x0 SWAP1 SLOAD SWAP1 PUSH2 0x100 EXP SWAP1 DIV PUSH20 0xFFFFFFFFFFFFFFFFFFFFFFFFFFFFFFFFFFFFFFFF AND PUSH20 0xFFFFFFFFFFFFFFFFFFFFFFFFFFFFFFFFFFFFFFFF AND PUSH2 0x8FC DUP3 PUSH1 0x5 ADD SLOAD SWAP1 DUP2 ISZERO MUL SWAP1 PUSH1 0x40 MLOAD PUSH1 0x0 PUSH1 0x40 MLOAD DUP1 DUP4 SUB DUP2 DUP6 DUP9 DUP9 CALL SWAP4 POP POP POP POP ISZERO DUP1 ISZERO PUSH2 0x5CC JUMPI RETURNDATASIZE PUSH1 0x0 DUP1 RETURNDATACOPY RETURNDATASIZE PUSH1 0x0 REVERT JUMPDEST POP DUP1 PUSH1 0x0 ADD PUSH1 0x0 SWAP1 SLOAD SWAP1 PUSH2 0x100 EXP SWAP1 DIV PUSH20 0xFFFFFFFFFFFFFFFFFFFFFFFFFFFFFFFFFFFFFFFF AND PUSH20 0xFFFFFFFFFFFFFFFFFFFFFFFFFFFFFFFFFFFFFFFF AND PUSH32 0xF440AEC6B52895984D061D622E6EDEBA6210F7C3E059BE920663140C084560D7 DUP4 DUP4 PUSH1 0x5 ADD SLOAD PUSH1 0x40 MLOAD PUSH2 0x63D SWAP3 SWAP2 SWAP1 PUSH2 0x13A7 JUMP JUMPDEST PUSH1 0x40 MLOAD DUP1 SWAP2 SUB SWAP1 LOG2 POP POP JUMP JUMPDEST PUSH1 0x0 DUP1 DUP1 SLOAD SWAP1 POP SWAP1 POP SWAP1 JUMP JUMPDEST PUSH1 0x1 PUSH1 0x20 MSTORE DUP2 PUSH1 0x0 MSTORE PUSH1 0x40 PUSH1 0x0 KECCAK256 PUSH1 0x20 MSTORE DUP1 PUSH1 0x0 MSTORE PUSH1 0x40 PUSH1 0x0 KECCAK256 PUSH1 0x0 SWAP2 POP SWAP2 POP POP SLOAD DUP2 JUMP JUMPDEST TIMESTAMP DUP2 GT PUSH2 0x6BC JUMPI PUSH1 0x40 MLOAD PUSH32 0x8C379A000000000000000000000000000000000000000000000000000000000 DUP2 MSTORE PUSH1 0x4 ADD PUSH2 0x6B3 SWAP1 PUSH2 0x141C JUMP JUMPDEST PUSH1 0x40 MLOAD DUP1 SWAP2 SUB SWAP1 REVERT JUMPDEST PUSH1 0x0 PUSH1 0x40 MLOAD DUP1 PUSH1 0xE0 ADD PUSH1 0x40 MSTORE DUP1 CALLER PUSH20 0xFFFFFFFFFFFFFFFFFFFFFFFFFFFFFFFFFFFFFFFF AND DUP2 MSTORE PUSH1 0x20 ADD DUP7 DUP2 MSTORE PUSH1 0x20 ADD DUP6 DUP2 MSTORE PUSH1 0x20 ADD DUP5 DUP2 MSTORE PUSH1 0x20 ADD DUP4 DUP2 MSTORE PUSH1 0x20 ADD PUSH1 0x0 DUP2 MSTORE PUSH1 0x20 ADD PUSH1 0x0 ISZERO ISZERO DUP2 MSTORE POP SWAP1 DUP1 PUSH1 0x1 DUP2 SLOAD ADD DUP1 DUP3 SSTORE DUP1 SWAP2 POP POP PUSH1 0x1 SWAP1 SUB SWAP1 PUSH1 0x0 MSTORE PUSH1 0x20 PUSH1 0x0 KECCAK256 SWAP1 PUSH1 0x7 MUL ADD PUSH1 0x0 SWAP1 SWAP2 SWAP1 SWAP2 SWAP1 SWAP2 POP PUSH1 0x0 DUP3 ADD MLOAD DUP2 PUSH1 0x0 ADD PUSH1 0x0 PUSH2 0x100 EXP DUP2 SLOAD DUP2 PUSH20 0xFFFFFFFFFFFFFFFFFFFFFFFFFFFFFFFFFFFFFFFF MUL NOT AND SWAP1 DUP4 PUSH20 0xFFFFFFFFFFFFFFFFFFFFFFFFFFFFFFFFFFFFFFFF AND MUL OR SWAP1 SSTORE POP PUSH1 0x20 DUP3 ADD MLOAD DUP2 PUSH1 0x1 ADD SWAP1 DUP2 PUSH2 0x790 SWAP2 SWAP1 PUSH2 0x15E8 JUMP JUMPDEST POP PUSH1 0x40 DUP3 ADD MLOAD DUP2 PUSH1 0x2 ADD SWAP1 DUP2 PUSH2 0x7A6 SWAP2 SWAP1 PUSH2 0x15E8 JUMP JUMPDEST POP PUSH1 0x60 DUP3 ADD MLOAD DUP2 PUSH1 0x3 ADD SSTORE PUSH1 0x80 DUP3 ADD MLOAD DUP2 PUSH1 0x4 ADD SSTORE PUSH1 0xA0 DUP3 ADD MLOAD DUP2 PUSH1 0x5 ADD SSTORE PUSH1 0xC0 DUP3 ADD MLOAD DUP2 PUSH1 0x6 ADD PUSH1 0x0 PUSH2 0x100 EXP DUP2 SLOAD DUP2 PUSH1 0xFF MUL NOT AND SWAP1 DUP4 ISZERO ISZERO MUL OR SWAP1 SSTORE POP POP POP CALLER PUSH20 0xFFFFFFFFFFFFFFFFFFFFFFFFFFFFFFFFFFFFFFFF AND PUSH32 0x483013D4A1D5E8BA43089BDA8F1A92B959E32D6FC582556F800267DD809E5893 PUSH1 0x1 PUSH1 0x0 DUP1 SLOAD SWAP1 POP PUSH2 0x831 SWAP2 SWAP1 PUSH2 0x16E9 JUMP JUMPDEST DUP7 DUP6 DUP6 PUSH1 0x40 MLOAD PUSH2 0x844 SWAP5 SWAP4 SWAP3 SWAP2 SWAP1 PUSH2 0x171D JUMP JUMPDEST PUSH1 0x40 MLOAD DUP1 SWAP2 SUB SWAP1 LOG2 POP POP POP POP JUMP JUMPDEST PUSH1 0x0 DUP1 SLOAD SWAP1 POP DUP2 LT PUSH2 0x899 JUMPI PUSH1 0x40 MLOAD PUSH32 0x8C379A000000000000000000000000000000000000000000000000000000000 DUP2 MSTORE PUSH1 0x4 ADD PUSH2 0x890 SWAP1 PUSH2 0x11A8 JUMP JUMPDEST PUSH1 0x40 MLOAD DUP1 SWAP2 SUB SWAP1 REVERT JUMPDEST PUSH1 0x0 DUP1 DUP3 DUP2 SLOAD DUP2 LT PUSH2 0x8AE JUMPI PUSH2 0x8AD PUSH2 0x11C8 JUMP JUMPDEST JUMPDEST SWAP1 PUSH1 0x0 MSTORE PUSH1 0x20 PUSH1 0x0 KECCAK256 SWAP1 PUSH1 0x7 MUL ADD SWAP1 POP DUP1 PUSH1 0x4 ADD SLOAD TIMESTAMP LT PUSH2 0x904 JUMPI PUSH1 0x40 MLOAD PUSH32 0x8C379A000000000000000000000000000000000000000000000000000000000 DUP2 MSTORE PUSH1 0x4 ADD PUSH2 0x8FB SWAP1 PUSH2 0x17B5 JUMP JUMPDEST PUSH1 0x40 MLOAD DUP1 SWAP2 SUB SWAP1 REVERT JUMPDEST PUSH1 0x0 CALLVALUE GT PUSH2 0x947 JUMPI PUSH1 0x40 MLOAD PUSH32 0x8C379A000000000000000000000000000000000000000000000000000000000 DUP2 MSTORE PUSH1 0x4 ADD PUSH2 0x93E SWAP1 PUSH2 0x1847 JUMP JUMPDEST PUSH1 0x40 MLOAD DUP1 SWAP2 SUB SWAP1 REVERT JUMPDEST CALLVALUE DUP2 PUSH1 0x5 ADD PUSH1 0x0 DUP3 DUP3 SLOAD PUSH2 0x95B SWAP2 SWAP1 PUSH2 0x1867 JUMP JUMPDEST SWAP3 POP POP DUP2 SWAP1 SSTORE POP CALLVALUE PUSH1 0x1 PUSH1 0x0 DUP5 DUP2 MSTORE PUSH1 0x20 ADD SWAP1 DUP2 MSTORE PUSH1 0x20 ADD PUSH1 0x0 KECCAK256 PUSH1 0x0 CALLER PUSH20 0xFFFFFFFFFFFFFFFFFFFFFFFFFFFFFFFFFFFFFFFF AND PUSH20 0xFFFFFFFFFFFFFFFFFFFFFFFFFFFFFFFFFFFFFFFF AND DUP2 MSTORE PUSH1 0x20 ADD SWAP1 DUP2 MSTORE PUSH1 0x20 ADD PUSH1 0x0 KECCAK256 PUSH1 0x0 DUP3 DUP3 SLOAD PUSH2 0x9C2 SWAP2 SWAP1 PUSH2 0x1867 JUMP JUMPDEST SWAP3 POP POP DUP2 SWAP1 SSTORE POP CALLER PUSH20 0xFFFFFFFFFFFFFFFFFFFFFFFFFFFFFFFFFFFFFFFF AND PUSH32 0xA4A91237423E0A1766A761C7CB029311D8B95D6B1B81DB1B949A70C98B4E08E DUP4 CALLVALUE PUSH1 0x40 MLOAD PUSH2 0xA11 SWAP3 SWAP2 SWAP1 PUSH2 0x13A7 JUMP JUMPDEST PUSH1 0x40 MLOAD DUP1 SWAP2 SUB SWAP1 LOG2 POP POP JUMP JUMPDEST PUSH1 0x0 PUSH1 0x60 DUP1 PUSH1 0x0 DUP1 PUSH1 0x0 DUP1 PUSH1 0x0 DUP1 SLOAD SWAP1 POP DUP9 LT PUSH2 0xA6F JUMPI PUSH1 0x40 MLOAD PUSH32 0x8C379A000000000000000000000000000000000000000000000000000000000 DUP2 MSTORE PUSH1 0x4 ADD PUSH2 0xA66 SWAP1 PUSH2 0x11A8 JUMP JUMPDEST PUSH1 0x40 MLOAD DUP1 SWAP2 SUB SWAP1 REVERT JUMPDEST PUSH1 0x0 DUP1 DUP10 DUP2 SLOAD DUP2 LT PUSH2 0xA84 JUMPI PUSH2 0xA83 PUSH2 0x11C8 JUMP JUMPDEST JUMPDEST SWAP1 PUSH1 0x0 MSTORE PUSH1 0x20 PUSH1 0x0 KECCAK256 SWAP1 PUSH1 0x7 MUL ADD SWAP1 POP DUP1 PUSH1 0x0 ADD PUSH1 0x0 SWAP1 SLOAD SWAP1 PUSH2 0x100 EXP SWAP1 DIV PUSH20 0xFFFFFFFFFFFFFFFFFFFFFFFFFFFFFFFFFFFFFFFF AND DUP2 PUSH1 0x1 ADD DUP3 PUSH1 0x2 ADD DUP4 PUSH1 0x3 ADD SLOAD DUP5 PUSH1 0x4 ADD SLOAD DUP6 PUSH1 0x5 ADD SLOAD DUP7 PUSH1 0x6 ADD PUSH1 0x0 SWAP1 SLOAD SWAP1 PUSH2 0x100 EXP SWAP1 DIV PUSH1 0xFF AND DUP6 DUP1 SLOAD PUSH2 0xAEE SWAP1 PUSH2 0x112B JUMP JUMPDEST DUP1 PUSH1 0x1F ADD PUSH1 0x20 DUP1 SWAP2 DIV MUL PUSH1 0x20 ADD PUSH1 0x40 MLOAD SWAP1 DUP2 ADD PUSH1 0x40 MSTORE DUP1 SWAP3 SWAP2 SWAP1 DUP2 DUP2 MSTORE PUSH1 0x20 ADD DUP3 DUP1 SLOAD PUSH2 0xB1A SWAP1 PUSH2 0x112B JUMP JUMPDEST DUP1 ISZERO PUSH2 0xB67 JUMPI DUP1 PUSH1 0x1F LT PUSH2 0xB3C JUMPI PUSH2 0x100 DUP1 DUP4 SLOAD DIV MUL DUP4 MSTORE SWAP2 PUSH1 0x20 ADD SWAP2 PUSH2 0xB67 JUMP JUMPDEST DUP3 ADD SWAP2 SWAP1 PUSH1 0x0 MSTORE PUSH1 0x20 PUSH1 0x0 KECCAK256 SWAP1 JUMPDEST DUP2 SLOAD DUP2 MSTORE SWAP1 PUSH1 0x1 ADD SWAP1 PUSH1 0x20 ADD DUP1 DUP4 GT PUSH2 0xB4A JUMPI DUP3 SWAP1 SUB PUSH1 0x1F AND DUP3 ADD SWAP2 JUMPDEST POP POP POP POP POP SWAP6 POP DUP5 DUP1 SLOAD PUSH2 0xB7A SWAP1 PUSH2 0x112B JUMP JUMPDEST DUP1 PUSH1 0x1F ADD PUSH1 0x20 DUP1 SWAP2 DIV MUL PUSH1 0x20 ADD PUSH1 0x40 MLOAD SWAP1 DUP2 ADD PUSH1 0x40 MSTORE DUP1 SWAP3 SWAP2 SWAP1 DUP2 DUP2 MSTORE PUSH1 0x20 ADD DUP3 DUP1 SLOAD PUSH2 0xBA6 SWAP1 PUSH2 0x112B JUMP JUMPDEST DUP1 ISZERO PUSH2 0xBF3 JUMPI DUP1 PUSH1 0x1F LT PUSH2 0xBC8 JUMPI PUSH2 0x100 DUP1 DUP4 SLOAD DIV MUL DUP4 MSTORE SWAP2 PUSH1 0x20 ADD SWAP2 PUSH2 0xBF3 JUMP JUMPDEST DUP3 ADD SWAP2 SWAP1 PUSH1 0x0 MSTORE PUSH1 0x20 PUSH1 0x0 KECCAK256 SWAP1 JUMPDEST DUP2 SLOAD DUP2 MSTORE SWAP1 PUSH1 0x1 ADD SWAP1 PUSH1 0x20 ADD DUP1 DUP4 GT PUSH2 0xBD6 JUMPI DUP3 SWAP1 SUB PUSH1 0x1F AND DUP3 ADD SWAP2 JUMPDEST POP POP POP POP POP SWAP5 POP SWAP8 POP SWAP8 POP SWAP8 POP SWAP8 POP SWAP8 POP SWAP8 POP SWAP8 POP POP SWAP2 SWAP4 SWAP6 SWAP8 SWAP1 SWAP3 SWAP5 SWAP7 POP JUMP JUMPDEST PUSH1 0x0 PUSH1 0x40 MLOAD SWAP1 POP SWAP1 JUMP JUMPDEST PUSH1 0x0 DUP1 REVERT JUMPDEST PUSH1 0x0 DUP1 REVERT JUMPDEST PUSH1 0x0 DUP2 SWAP1 POP SWAP2 SWAP1 POP JUMP JUMPDEST PUSH2 0xC3B DUP2 PUSH2 0xC28 JUMP JUMPDEST DUP2 EQ PUSH2 0xC46 JUMPI PUSH1 0x0 DUP1 REVERT JUMPDEST POP JUMP JUMPDEST PUSH1 0x0 DUP2 CALLDATALOAD SWAP1 POP PUSH2 0xC58 DUP2 PUSH2 0xC32 JUMP JUMPDEST SWAP3 SWAP2 POP POP JUMP JUMPDEST PUSH1 0x0 PUSH1 0x20 DUP3 DUP5 SUB SLT ISZERO PUSH2 0xC74 JUMPI PUSH2 0xC73 PUSH2 0xC1E JUMP JUMPDEST JUMPDEST PUSH1 0x0 PUSH2 0xC82 DUP5 DUP3 DUP6 ADD PUSH2 0xC49 JUMP JUMPDEST SWAP2 POP POP SWAP3 SWAP2 POP POP JUMP JUMPDEST PUSH1 0x0 PUSH20 0xFFFFFFFFFFFFFFFFFFFFFFFFFFFFFFFFFFFFFFFF DUP3 AND SWAP1 POP SWAP2 SWAP1 POP JUMP JUMPDEST PUSH1 0x0 PUSH2 0xCB6 DUP3 PUSH2 0xC8B JUMP JUMPDEST SWAP1 POP SWAP2 SWAP1 POP JUMP JUMPDEST PUSH2 0xCC6 DUP2 PUSH2 0xCAB JUMP JUMPDEST DUP3 MSTORE POP POP JUMP JUMPDEST PUSH1 0x0 DUP2 MLOAD SWAP1 POP SWAP2 SWAP1 POP JUMP JUMPDEST PUSH1 0x0 DUP3 DUP3 MSTORE PUSH1 0x20 DUP3 ADD SWAP1 POP SWAP3 SWAP2 POP POP JUMP JUMPDEST PUSH1 0x0 JUMPDEST DUP4 DUP2 LT ISZERO PUSH2 0xD06 JUMPI DUP1 DUP3 ADD MLOAD DUP2 DUP5 ADD MSTORE PUSH1 0x20 DUP2 ADD SWAP1 POP PUSH2 0xCEB JUMP JUMPDEST PUSH1 0x0 DUP5 DUP5 ADD MSTORE POP POP POP POP JUMP JUMPDEST PUSH1 0x0 PUSH1 0x1F NOT PUSH1 0x1F DUP4 ADD AND SWAP1 POP SWAP2 SWAP1 POP JUMP JUMPDEST PUSH1 0x0 PUSH2 0xD2E DUP3 PUSH2 0xCCC JUMP JUMPDEST PUSH2 0xD38 DUP2 DUP6 PUSH2 0xCD7 JUMP JUMPDEST SWAP4 POP PUSH2 0xD48 DUP2 DUP6 PUSH1 0x20 DUP7 ADD PUSH2 0xCE8 JUMP JUMPDEST PUSH2 0xD51 DUP2 PUSH2 0xD12 JUMP JUMPDEST DUP5 ADD SWAP2 POP POP SWAP3 SWAP2 POP POP JUMP JUMPDEST PUSH2 0xD65 DUP2 PUSH2 0xC28 JUMP JUMPDEST DUP3 MSTORE POP POP JUMP JUMPDEST PUSH1 0x0 DUP2 ISZERO ISZERO SWAP1 POP SWAP2 SWAP1 POP JUMP JUMPDEST PUSH2 0xD80 DUP2 PUSH2 0xD6B JUMP JUMPDEST DUP3 MSTORE POP POP JUMP JUMPDEST PUSH1 0x0 PUSH1 0xE0 DUP3 ADD SWAP1 POP PUSH2 0xD9B PUSH1 0x0 DUP4 ADD DUP11 PUSH2 0xCBD JUMP JUMPDEST DUP2 DUP2 SUB PUSH1 0x20 DUP4 ADD MSTORE PUSH2 0xDAD DUP2 DUP10 PUSH2 0xD23 JUMP JUMPDEST SWAP1 POP DUP2 DUP2 SUB PUSH1 0x40 DUP4 ADD MSTORE PUSH2 0xDC1 DUP2 DUP9 PUSH2 0xD23 JUMP JUMPDEST SWAP1 POP PUSH2 0xDD0 PUSH1 0x60 DUP4 ADD DUP8 PUSH2 0xD5C JUMP JUMPDEST PUSH2 0xDDD PUSH1 0x80 DUP4 ADD DUP7 PUSH2 0xD5C JUMP JUMPDEST PUSH2 0xDEA PUSH1 0xA0 DUP4 ADD DUP6 PUSH2 0xD5C JUMP JUMPDEST PUSH2 0xDF7 PUSH1 0xC0 DUP4 ADD DUP5 PUSH2 0xD77 JUMP JUMPDEST SWAP9 SWAP8 POP POP POP POP POP POP POP POP JUMP JUMPDEST PUSH1 0x0 PUSH1 0x20 DUP3 ADD SWAP1 POP PUSH2 0xE18 PUSH1 0x0 DUP4 ADD DUP5 PUSH2 0xD5C JUMP JUMPDEST SWAP3 SWAP2 POP POP JUMP JUMPDEST PUSH1 0x0 PUSH2 0xE29 DUP3 PUSH2 0xC8B JUMP JUMPDEST SWAP1 POP SWAP2 SWAP1 POP JUMP JUMPDEST PUSH2 0xE39 DUP2 PUSH2 0xE1E JUMP JUMPDEST DUP2 EQ PUSH2 0xE44 JUMPI PUSH1 0x0 DUP1 REVERT JUMPDEST POP JUMP JUMPDEST PUSH1 0x0 DUP2 CALLDATALOAD SWAP1 POP PUSH2 0xE56 DUP2 PUSH2 0xE30 JUMP JUMPDEST SWAP3 SWAP2 POP POP JUMP JUMPDEST PUSH1 0x0 DUP1 PUSH1 0x40 DUP4 DUP6 SUB SLT ISZERO PUSH2 0xE73 JUMPI PUSH2 0xE72 PUSH2 0xC1E JUMP JUMPDEST JUMPDEST PUSH1 0x0 PUSH2 0xE81 DUP6 DUP3 DUP7 ADD PUSH2 0xC49 JUMP JUMPDEST SWAP3 POP POP PUSH1 0x20 PUSH2 0xE92 DUP6 DUP3 DUP7 ADD PUSH2 0xE47 JUMP JUMPDEST SWAP2 POP POP SWAP3 POP SWAP3 SWAP1 POP JUMP JUMPDEST PUSH1 0x0 DUP1 REVERT JUMPDEST PUSH1 0x0 DUP1 REVERT JUMPDEST PUSH32 0x4E487B7100000000000000000000000000000000000000000000000000000000 PUSH1 0x0 MSTORE PUSH1 0x41 PUSH1 0x4 MSTORE PUSH1 0x24 PUSH1 0x0 REVERT JUMPDEST PUSH2 0xEDE DUP3 PUSH2 0xD12 JUMP JUMPDEST DUP2 ADD DUP2 DUP2 LT PUSH8 0xFFFFFFFFFFFFFFFF DUP3 GT OR ISZERO PUSH2 0xEFD JUMPI PUSH2 0xEFC PUSH2 0xEA6 JUMP JUMPDEST JUMPDEST DUP1 PUSH1 0x40 MSTORE POP POP POP JUMP JUMPDEST PUSH1 0x0 PUSH2 0xF10 PUSH2 0xC14 JUMP JUMPDEST SWAP1 POP PUSH2 0xF1C DUP3 DUP3 PUSH2 0xED5 JUMP JUMPDEST SWAP2 SWAP1 POP JUMP JUMPDEST PUSH1 0x0 PUSH8 0xFFFFFFFFFFFFFFFF DUP3 GT ISZERO PUSH2 0xF3C JUMPI PUSH2 0xF3B PUSH2 0xEA6 JUMP JUMPDEST JUMPDEST PUSH2 0xF45 DUP3 PUSH2 0xD12 JUMP JUMPDEST SWAP1 POP PUSH1 0x20 DUP2 ADD SWAP1 POP SWAP2 SWAP1 POP JUMP JUMPDEST DUP3 DUP2 DUP4 CALLDATACOPY PUSH1 0x0 DUP4 DUP4 ADD MSTORE POP POP POP JUMP JUMPDEST PUSH1 0x0 PUSH2 0xF74 PUSH2 0xF6F DUP5 PUSH2 0xF21 JUMP JUMPDEST PUSH2 0xF06 JUMP JUMPDEST SWAP1 POP DUP3 DUP2 MSTORE PUSH1 0x20 DUP2 ADD DUP5 DUP5 DUP5 ADD GT ISZERO PUSH2 0xF90 JUMPI PUSH2 0xF8F PUSH2 0xEA1 JUMP JUMPDEST JUMPDEST PUSH2 0xF9B DUP5 DUP3 DUP6 PUSH2 0xF52 JUMP JUMPDEST POP SWAP4 SWAP3 POP POP POP JUMP JUMPDEST PUSH1 0x0 DUP3 PUSH1 0x1F DUP4 ADD SLT PUSH2 0xFB8 JUMPI PUSH2 0xFB7 PUSH2 0xE9C JUMP JUMPDEST JUMPDEST DUP2 CALLDATALOAD PUSH2 0xFC8 DUP5 DUP3 PUSH1 0x20 DUP7 ADD PUSH2 0xF61 JUMP JUMPDEST SWAP2 POP POP SWAP3 SWAP2 POP POP JUMP JUMPDEST PUSH1 0x0 DUP1 PUSH1 0x0 DUP1 PUSH1 0x80 DUP6 DUP8 SUB SLT ISZERO PUSH2 0xFEB JUMPI PUSH2 0xFEA PUSH2 0xC1E JUMP JUMPDEST JUMPDEST PUSH1 0x0 DUP6 ADD CALLDATALOAD PUSH8 0xFFFFFFFFFFFFFFFF DUP2 GT ISZERO PUSH2 0x1009 JUMPI PUSH2 0x1008 PUSH2 0xC23 JUMP JUMPDEST JUMPDEST PUSH2 0x1015 DUP8 DUP3 DUP9 ADD PUSH2 0xFA3 JUMP JUMPDEST SWAP5 POP POP PUSH1 0x20 DUP6 ADD CALLDATALOAD PUSH8 0xFFFFFFFFFFFFFFFF DUP2 GT ISZERO PUSH2 0x1036 JUMPI PUSH2 0x1035 PUSH2 0xC23 JUMP JUMPDEST JUMPDEST PUSH2 0x1042 DUP8 DUP3 DUP9 ADD PUSH2 0xFA3 JUMP JUMPDEST SWAP4 POP POP PUSH1 0x40 PUSH2 0x1053 DUP8 DUP3 DUP9 ADD PUSH2 0xC49 JUMP JUMPDEST SWAP3 POP POP PUSH1 0x60 PUSH2 0x1064 DUP8 DUP3 DUP9 ADD PUSH2 0xC49 JUMP JUMPDEST SWAP2 POP POP SWAP3 SWAP6 SWAP2 SWAP5 POP SWAP3 POP JUMP JUMPDEST PUSH2 0x1079 DUP2 PUSH2 0xE1E JUMP JUMPDEST DUP3 MSTORE POP POP JUMP JUMPDEST PUSH1 0x0 PUSH1 0xE0 DUP3 ADD SWAP1 POP PUSH2 0x1094 PUSH1 0x0 DUP4 ADD DUP11 PUSH2 0x1070 JUMP JUMPDEST DUP2 DUP2 SUB PUSH1 0x20 DUP4 ADD MSTORE PUSH2 0x10A6 DUP2 DUP10 PUSH2 0xD23 JUMP JUMPDEST SWAP1 POP DUP2 DUP2 SUB PUSH1 0x40 DUP4 ADD MSTORE PUSH2 0x10BA DUP2 DUP9 PUSH2 0xD23 JUMP JUMPDEST SWAP1 POP PUSH2 0x10C9 PUSH1 0x60 DUP4 ADD DUP8 PUSH2 0xD5C JUMP JUMPDEST PUSH2 0x10D6 PUSH1 0x80 DUP4 ADD DUP7 PUSH2 0xD5C JUMP JUMPDEST PUSH2 0x10E3 PUSH1 0xA0 DUP4 ADD DUP6 PUSH2 0xD5C JUMP JUMPDEST PUSH2 0x10F0 PUSH1 0xC0 DUP4 ADD DUP5 PUSH2 0xD77 JUMP JUMPDEST SWAP9 SWAP8 POP POP POP POP POP POP POP POP JUMP JUMPDEST PUSH32 0x4E487B7100000000000000000000000000000000000000000000000000000000 PUSH1 0x0 MSTORE PUSH1 0x22 PUSH1 0x4 MSTORE PUSH1 0x24 PUSH1 0x0 REVERT JUMPDEST PUSH1 0x0 PUSH1 0x2 DUP3 DIV SWAP1 POP PUSH1 0x1 DUP3 AND DUP1 PUSH2 0x1143 JUMPI PUSH1 0x7F DUP3 AND SWAP2 POP JUMPDEST PUSH1 0x20 DUP3 LT DUP2 SUB PUSH2 0x1156 JUMPI PUSH2 0x1155 PUSH2 0x10FC JUMP JUMPDEST JUMPDEST POP SWAP2 SWAP1 POP JUMP JUMPDEST PUSH32 0x50726F6A65637420646F6573206E6F7420657869737400000000000000000000 PUSH1 0x0 DUP3 ADD MSTORE POP JUMP JUMPDEST PUSH1 0x0 PUSH2 0x1192 PUSH1 0x16 DUP4 PUSH2 0xCD7 JUMP JUMPDEST SWAP2 POP PUSH2 0x119D DUP3 PUSH2 0x115C JUMP JUMPDEST PUSH1 0x20 DUP3 ADD SWAP1 POP SWAP2 SWAP1 POP JUMP JUMPDEST PUSH1 0x0 PUSH1 0x20 DUP3 ADD SWAP1 POP DUP2 DUP2 SUB PUSH1 0x0 DUP4 ADD MSTORE PUSH2 0x11C1 DUP2 PUSH2 0x1185 JUMP JUMPDEST SWAP1 POP SWAP2 SWAP1 POP JUMP JUMPDEST PUSH32 0x4E487B7100000000000000000000000000000000000000000000000000000000 PUSH1 0x0 MSTORE PUSH1 0x32 PUSH1 0x4 MSTORE PUSH1 0x24 PUSH1 0x0 REVERT JUMPDEST PUSH32 0x4F6E6C792063726561746F722063616E2077697468647261772066756E647300 PUSH1 0x0 DUP3 ADD MSTORE POP JUMP JUMPDEST PUSH1 0x0 PUSH2 0x122D PUSH1 0x1F DUP4 PUSH2 0xCD7 JUMP JUMPDEST SWAP2 POP PUSH2 0x1238 DUP3 PUSH2 0x11F7 JUMP JUMPDEST PUSH1 0x20 DUP3 ADD SWAP1 POP SWAP2 SWAP1 POP JUMP JUMPDEST PUSH1 0x0 PUSH1 0x20 DUP3 ADD SWAP1 POP DUP2 DUP2 SUB PUSH1 0x0 DUP4 ADD MSTORE PUSH2 0x125C DUP2 PUSH2 0x1220 JUMP JUMPDEST SWAP1 POP SWAP2 SWAP1 POP JUMP JUMPDEST PUSH32 0x43616E6E6F74207769746864726177206265666F726520646561646C696E6500 PUSH1 0x0 DUP3 ADD MSTORE POP JUMP JUMPDEST PUSH1 0x0 PUSH2 0x1299 PUSH1 0x1F DUP4 PUSH2 0xCD7 JUMP JUMPDEST SWAP2 POP PUSH2 0x12A4 DUP3 PUSH2 0x1263 JUMP JUMPDEST PUSH1 0x20 DUP3 ADD SWAP1 POP SWAP2 SWAP1 POP JUMP JUMPDEST PUSH1 0x0 PUSH1 0x20 DUP3 ADD SWAP1 POP DUP2 DUP2 SUB PUSH1 0x0 DUP4 ADD MSTORE PUSH2 0x12C8 DUP2 PUSH2 0x128C JUMP JUMPDEST SWAP1 POP SWAP2 SWAP1 POP JUMP JUMPDEST PUSH32 0x46756E64696E6720676F616C206E6F7420726561636865640000000000000000 PUSH1 0x0 DUP3 ADD MSTORE POP JUMP JUMPDEST PUSH1 0x0 PUSH2 0x1305 PUSH1 0x18 DUP4 PUSH2 0xCD7 JUMP JUMPDEST SWAP2 POP PUSH2 0x1310 DUP3 PUSH2 0x12CF JUMP JUMPDEST PUSH1 0x20 DUP3 ADD SWAP1 POP SWAP2 SWAP1 POP JUMP JUMPDEST PUSH1 0x0 PUSH1 0x20 DUP3 ADD SWAP1 POP DUP2 DUP2 SUB PUSH1 0x0 DUP4 ADD MSTORE PUSH2 0x1334 DUP2 PUSH2 0x12F8 JUMP JUMPDEST SWAP1 POP SWAP2 SWAP1 POP JUMP JUMPDEST PUSH32 0x46756E647320616C72656164792077697468647261776E000000000000000000 PUSH1 0x0 DUP3 ADD MSTORE POP JUMP JUMPDEST PUSH1 0x0 PUSH2 0x1371 PUSH1 0x17 DUP4 PUSH2 0xCD7 JUMP JUMPDEST SWAP2 POP PUSH2 0x137C DUP3 PUSH2 0x133B JUMP JUMPDEST PUSH1 0x20 DUP3 ADD SWAP1 POP SWAP2 SWAP1 POP JUMP JUMPDEST PUSH1 0x0 PUSH1 0x20 DUP3 ADD SWAP1 POP DUP2 DUP2 SUB PUSH1 0x0 DUP4 ADD MSTORE PUSH2 0x13A0 DUP2 PUSH2 0x1364 JUMP JUMPDEST SWAP1 POP SWAP2 SWAP1 POP JUMP JUMPDEST PUSH1 0x0 PUSH1 0x40 DUP3 ADD SWAP1 POP PUSH2 0x13BC PUSH1 0x0 DUP4 ADD DUP6 PUSH2 0xD5C JUMP JUMPDEST PUSH2 0x13C9 PUSH1 0x20 DUP4 ADD DUP5 PUSH2 0xD5C JUMP JUMPDEST SWAP4 SWAP3 POP POP POP JUMP JUMPDEST PUSH32 0x446561646C696E652073686F756C6420626520696E2074686520667574757265 PUSH1 0x0 DUP3 ADD MSTORE POP JUMP JUMPDEST PUSH1 0x0 PUSH2 0x1406 PUSH1 0x20 DUP4 PUSH2 0xCD7 JUMP JUMPDEST SWAP2 POP PUSH2 0x1411 DUP3 PUSH2 0x13D0 JUMP JUMPDEST PUSH1 0x20 DUP3 ADD SWAP1 POP SWAP2 SWAP1 POP JUMP JUMPDEST PUSH1 0x0 PUSH1 0x20 DUP3 ADD SWAP1 POP DUP2 DUP2 SUB PUSH1 0x0 DUP4 ADD MSTORE PUSH2 0x1435 DUP2 PUSH2 0x13F9 JUMP JUMPDEST SWAP1 POP SWAP2 SWAP1 POP JUMP JUMPDEST PUSH1 0x0 DUP2 SWAP1 POP DUP2 PUSH1 0x0 MSTORE PUSH1 0x20 PUSH1 0x0 KECCAK256 SWAP1 POP SWAP2 SWAP1 POP JUMP JUMPDEST PUSH1 0x0 PUSH1 0x20 PUSH1 0x1F DUP4 ADD DIV SWAP1 POP SWAP2 SWAP1 POP JUMP JUMPDEST PUSH1 0x0 DUP3 DUP3 SHL SWAP1 POP SWAP3 SWAP2 POP POP JUMP JUMPDEST PUSH1 0x0 PUSH1 0x8 DUP4 MUL PUSH2 0x149E PUSH32 0xFFFFFFFFFFFFFFFFFFFFFFFFFFFFFFFFFFFFFFFFFFFFFFFFFFFFFFFFFFFFFFFF DUP3 PUSH2 0x1461 JUMP JUMPDEST PUSH2 0x14A8 DUP7 DUP4 PUSH2 0x1461 JUMP JUMPDEST SWAP6 POP DUP1 NOT DUP5 AND SWAP4 POP DUP1 DUP7 AND DUP5 OR SWAP3 POP POP POP SWAP4 SWAP3 POP POP POP JUMP JUMPDEST PUSH1 0x0 DUP2 SWAP1 POP SWAP2 SWAP1 POP JUMP JUMPDEST PUSH1 0x0 PUSH2 0x14E5 PUSH2 0x14E0 PUSH2 0x14DB DUP5 PUSH2 0xC28 JUMP JUMPDEST PUSH2 0x14C0 JUMP JUMPDEST PUSH2 0xC28 JUMP JUMPDEST SWAP1 POP SWAP2 SWAP1 POP JUMP JUMPDEST PUSH1 0x0 DUP2 SWAP1 POP SWAP2 SWAP1 POP JUMP JUMPDEST PUSH2 0x14FF DUP4 PUSH2 0x14CA JUMP JUMPDEST PUSH2 0x1513 PUSH2 0x150B DUP3 PUSH2 0x14EC JUMP JUMPDEST DUP5 DUP5 SLOAD PUSH2 0x146E JUMP JUMPDEST DUP3 SSTORE POP POP POP POP JUMP JUMPDEST PUSH1 0x0 SWAP1 JUMP JUMPDEST PUSH2 0x1528 PUSH2 0x151B JUMP JUMPDEST PUSH2 0x1533 DUP2 DUP5 DUP5 PUSH2 0x14F6 JUMP JUMPDEST POP POP POP JUMP JUMPDEST JUMPDEST DUP2 DUP2 LT ISZERO PUSH2 0x1557 JUMPI PUSH2 0x154C PUSH1 0x0 DUP3 PUSH2 0x1520 JUMP JUMPDEST PUSH1 0x1 DUP2 ADD SWAP1 POP PUSH2 0x1539 JUMP JUMPDEST POP POP JUMP JUMPDEST PUSH1 0x1F DUP3 GT ISZERO PUSH2 0x159C JUMPI PUSH2 0x156D DUP2 PUSH2 0x143C JUMP JUMPDEST PUSH2 0x1576 DUP5 PUSH2 0x1451 JUMP JUMPDEST DUP2 ADD PUSH1 0x20 DUP6 LT ISZERO PUSH2 0x1585 JUMPI DUP2 SWAP1 POP JUMPDEST PUSH2 0x1599 PUSH2 0x1591 DUP6 PUSH2 0x1451 JUMP JUMPDEST DUP4 ADD DUP3 PUSH2 0x1538 JUMP JUMPDEST POP POP JUMPDEST POP POP POP JUMP JUMPDEST PUSH1 0x0 DUP3 DUP3 SHR SWAP1 POP SWAP3 SWAP2 POP POP JUMP JUMPDEST PUSH1 0x0 PUSH2 0x15BF PUSH1 0x0 NOT DUP5 PUSH1 0x8 MUL PUSH2 0x15A1 JUMP JUMPDEST NOT DUP1 DUP4 AND SWAP2 POP POP SWAP3 SWAP2 POP POP JUMP JUMPDEST PUSH1 0x0 PUSH2 0x15D8 DUP4 DUP4 PUSH2 0x15AE JUMP JUMPDEST SWAP2 POP DUP3 PUSH1 0x2 MUL DUP3 OR SWAP1 POP SWAP3 SWAP2 POP POP JUMP JUMPDEST PUSH2 0x15F1 DUP3 PUSH2 0xCCC JUMP JUMPDEST PUSH8 0xFFFFFFFFFFFFFFFF DUP2 GT ISZERO PUSH2 0x160A JUMPI PUSH2 0x1609 PUSH2 0xEA6 JUMP JUMPDEST JUMPDEST PUSH2 0x1614 DUP3 SLOAD PUSH2 0x112B JUMP JUMPDEST PUSH2 0x161F DUP3 DUP3 DUP6 PUSH2 0x155B JUMP JUMPDEST PUSH1 0x0 PUSH1 0x20 SWAP1 POP PUSH1 0x1F DUP4 GT PUSH1 0x1 DUP2 EQ PUSH2 0x1652 JUMPI PUSH1 0x0 DUP5 ISZERO PUSH2 0x1640 JUMPI DUP3 DUP8 ADD MLOAD SWAP1 POP JUMPDEST PUSH2 0x164A DUP6 DUP3 PUSH2 0x15CC JUMP JUMPDEST DUP7 SSTORE POP PUSH2 0x16B2 JUMP JUMPDEST PUSH1 0x1F NOT DUP5 AND PUSH2 0x1660 DUP7 PUSH2 0x143C JUMP JUMPDEST PUSH1 0x0 JUMPDEST DUP3 DUP2 LT ISZERO PUSH2 0x1688 JUMPI DUP5 DUP10 ADD MLOAD DUP3 SSTORE PUSH1 0x1 DUP3 ADD SWAP2 POP PUSH1 0x20 DUP6 ADD SWAP5 POP PUSH1 0x20 DUP2 ADD SWAP1 POP PUSH2 0x1663 JUMP JUMPDEST DUP7 DUP4 LT ISZERO PUSH2 0x16A5 JUMPI DUP5 DUP10 ADD MLOAD PUSH2 0x16A1 PUSH1 0x1F DUP10 AND DUP3 PUSH2 0x15AE JUMP JUMPDEST DUP4 SSTORE POP JUMPDEST PUSH1 0x1 PUSH1 0x2 DUP9 MUL ADD DUP9 SSTORE POP POP POP JUMPDEST POP POP POP POP POP POP JUMP JUMPDEST PUSH32 0x4E487B7100000000000000000000000000000000000000000000000000000000 PUSH1 0x0 MSTORE PUSH1 0x11 PUSH1 0x4 MSTORE PUSH1 0x24 PUSH1 0x0 REVERT JUMPDEST PUSH1 0x0 PUSH2 0x16F4 DUP3 PUSH2 0xC28 JUMP JUMPDEST SWAP2 POP PUSH2 0x16FF DUP4 PUSH2 0xC28 JUMP JUMPDEST SWAP3 POP DUP3 DUP3 SUB SWAP1 POP DUP2 DUP2 GT ISZERO PUSH2 0x1717 JUMPI PUSH2 0x1716 PUSH2 0x16BA JUMP JUMPDEST JUMPDEST SWAP3 SWAP2 POP POP JUMP JUMPDEST PUSH1 0x0 PUSH1 0x80 DUP3 ADD SWAP1 POP PUSH2 0x1732 PUSH1 0x0 DUP4 ADD DUP8 PUSH2 0xD5C JUMP JUMPDEST DUP2 DUP2 SUB PUSH1 0x20 DUP4 ADD MSTORE PUSH2 0x1744 DUP2 DUP7 PUSH2 0xD23 JUMP JUMPDEST SWAP1 POP PUSH2 0x1753 PUSH1 0x40 DUP4 ADD DUP6 PUSH2 0xD5C JUMP JUMPDEST PUSH2 0x1760 PUSH1 0x60 DUP4 ADD DUP5 PUSH2 0xD5C JUMP JUMPDEST SWAP6 SWAP5 POP POP POP POP POP JUMP JUMPDEST PUSH32 0x46756E64696E6720706572696F642068617320656E6465640000000000000000 PUSH1 0x0 DUP3 ADD MSTORE POP JUMP JUMPDEST PUSH1 0x0 PUSH2 0x179F PUSH1 0x18 DUP4 PUSH2 0xCD7 JUMP JUMPDEST SWAP2 POP PUSH2 0x17AA DUP3 PUSH2 0x1769 JUMP JUMPDEST PUSH1 0x20 DUP3 ADD SWAP1 POP SWAP2 SWAP1 POP JUMP JUMPDEST PUSH1 0x0 PUSH1 0x20 DUP3 ADD SWAP1 POP DUP2 DUP2 SUB PUSH1 0x0 DUP4 ADD MSTORE PUSH2 0x17CE DUP2 PUSH2 0x1792 JUMP JUMPDEST SWAP1 POP SWAP2 SWAP1 POP JUMP JUMPDEST PUSH32 0x436F6E747269627574696F6E206D757374206265206772656174657220746861 PUSH1 0x0 DUP3 ADD MSTORE PUSH32 0x6E207A65726F0000000000000000000000000000000000000000000000000000 PUSH1 0x20 DUP3 ADD MSTORE POP JUMP JUMPDEST PUSH1 0x0 PUSH2 0x1831 PUSH1 0x26 DUP4 PUSH2 0xCD7 JUMP JUMPDEST SWAP2 POP PUSH2 0x183C DUP3 PUSH2 0x17D5 JUMP JUMPDEST PUSH1 0x40 DUP3 ADD SWAP1 POP SWAP2 SWAP1 POP JUMP JUMPDEST PUSH1 0x0 PUSH1 0x20 DUP3 ADD SWAP1 POP DUP2 DUP2 SUB PUSH1 0x0 DUP4 ADD MSTORE PUSH2 0x1860 DUP2 PUSH2 0x1824 JUMP JUMPDEST SWAP1 POP SWAP2 SWAP1 POP JUMP JUMPDEST PUSH1 0x0 PUSH2 0x1872 DUP3 PUSH2 0xC28 JUMP JUMPDEST SWAP2 POP PUSH2 0x187D DUP4 PUSH2 0xC28 JUMP JUMPDEST SWAP3 POP DUP3 DUP3 ADD SWAP1 POP DUP1 DUP3 GT ISZERO PUSH2 0x1895 JUMPI PUSH2 0x1894 PUSH2 0x16BA JUMP JUMPDEST JUMPDEST SWAP3 SWAP2 POP POP JUMP INVALID LOG2 PUSH5 0x6970667358 0x22 SLT KECCAK256 DELEGATECALL 0xCC STOP 0xF 0xD0 0xAA SMOD CALL CALLVALUE 0xBF DIV 0x22 0xE7 0xD8 SAR 0x2E CALLDATACOPY 0xD3 0xDA 0xAA MSIZE 0xD3 0xE0 RETURNDATASIZE PUSH13 0xFB4257224780A164736F6C6343 STOP ADDMOD SHL STOP CALLER "
        },
        "methodIdentifiers": {
          "contributions(uint256,address)": "3d891f59",
          "fundProject(uint256)": "6c563abe",
          "getProject(uint256)": "f0f3f2c8",
          "getProjectCount()": "3bcff3b0",
          "projects(uint256)": "107046bd",
          "submitProject(string,string,uint256,uint256)": "57cbf1a2",
          "withdrawFunds(uint256)": "155dd5ee"
        }
      }
    }
  }
}